{
  "_format": "hh-sol-artifact-1",
  "contractName": "MyEpicNFT",
  "sourceName": "contracts/MyEpicNFT.sol",
  "abi": [
    {
      "inputs": [],
      "stateMutability": "nonpayable",
      "type": "constructor"
    },
    {
      "anonymous": false,
      "inputs": [
        {
          "indexed": true,
          "internalType": "address",
          "name": "owner",
          "type": "address"
        },
        {
          "indexed": true,
          "internalType": "address",
          "name": "approved",
          "type": "address"
        },
        {
          "indexed": true,
          "internalType": "uint256",
          "name": "tokenId",
          "type": "uint256"
        }
      ],
      "name": "Approval",
      "type": "event"
    },
    {
      "anonymous": false,
      "inputs": [
        {
          "indexed": true,
          "internalType": "address",
          "name": "owner",
          "type": "address"
        },
        {
          "indexed": true,
          "internalType": "address",
          "name": "operator",
          "type": "address"
        },
        {
          "indexed": false,
          "internalType": "bool",
          "name": "approved",
          "type": "bool"
        }
      ],
      "name": "ApprovalForAll",
      "type": "event"
    },
    {
      "anonymous": false,
      "inputs": [
        {
          "indexed": false,
          "internalType": "address",
          "name": "sender",
          "type": "address"
        },
        {
          "indexed": false,
          "internalType": "uint256",
          "name": "tokenId",
          "type": "uint256"
        }
      ],
      "name": "NewEpicNFTMinted",
      "type": "event"
    },
    {
      "anonymous": false,
      "inputs": [
        {
          "indexed": true,
          "internalType": "address",
          "name": "from",
          "type": "address"
        },
        {
          "indexed": true,
          "internalType": "address",
          "name": "to",
          "type": "address"
        },
        {
          "indexed": true,
          "internalType": "uint256",
          "name": "tokenId",
          "type": "uint256"
        }
      ],
      "name": "Transfer",
      "type": "event"
    },
    {
      "inputs": [
        {
          "internalType": "address",
          "name": "to",
          "type": "address"
        },
        {
          "internalType": "uint256",
          "name": "tokenId",
          "type": "uint256"
        }
      ],
      "name": "approve",
      "outputs": [],
      "stateMutability": "nonpayable",
      "type": "function"
    },
    {
      "inputs": [
        {
          "internalType": "address",
          "name": "owner",
          "type": "address"
        }
      ],
      "name": "balanceOf",
      "outputs": [
        {
          "internalType": "uint256",
          "name": "",
          "type": "uint256"
        }
      ],
      "stateMutability": "view",
      "type": "function"
    },
    {
      "inputs": [
        {
          "internalType": "uint256",
          "name": "tokenId",
          "type": "uint256"
        }
      ],
      "name": "getApproved",
      "outputs": [
        {
          "internalType": "address",
          "name": "",
          "type": "address"
        }
      ],
      "stateMutability": "view",
      "type": "function"
    },
    {
      "inputs": [],
      "name": "getCounter",
      "outputs": [
        {
          "internalType": "uint256",
          "name": "",
          "type": "uint256"
        }
      ],
      "stateMutability": "view",
      "type": "function"
    },
    {
      "inputs": [],
      "name": "getMaxId",
      "outputs": [
        {
          "internalType": "uint256",
          "name": "",
          "type": "uint256"
        }
      ],
      "stateMutability": "view",
      "type": "function"
    },
    {
      "inputs": [
        {
          "internalType": "address",
          "name": "owner",
          "type": "address"
        },
        {
          "internalType": "address",
          "name": "operator",
          "type": "address"
        }
      ],
      "name": "isApprovedForAll",
      "outputs": [
        {
          "internalType": "bool",
          "name": "",
          "type": "bool"
        }
      ],
      "stateMutability": "view",
      "type": "function"
    },
    {
      "inputs": [],
      "name": "makeAnEpicNFT",
      "outputs": [],
      "stateMutability": "nonpayable",
      "type": "function"
    },
    {
      "inputs": [],
      "name": "name",
      "outputs": [
        {
          "internalType": "string",
          "name": "",
          "type": "string"
        }
      ],
      "stateMutability": "view",
      "type": "function"
    },
    {
      "inputs": [
        {
          "internalType": "uint256",
          "name": "tokenId",
          "type": "uint256"
        }
      ],
      "name": "ownerOf",
      "outputs": [
        {
          "internalType": "address",
          "name": "",
          "type": "address"
        }
      ],
      "stateMutability": "view",
      "type": "function"
    },
    {
      "inputs": [
        {
          "internalType": "uint256",
          "name": "tokenId",
          "type": "uint256"
        }
      ],
      "name": "pickRandomFirstWord",
      "outputs": [
        {
          "internalType": "string",
          "name": "",
          "type": "string"
        }
      ],
      "stateMutability": "view",
      "type": "function"
    },
    {
      "inputs": [
        {
          "internalType": "uint256",
          "name": "tokenId",
          "type": "uint256"
        }
      ],
      "name": "pickRandomSecondWord",
      "outputs": [
        {
          "internalType": "string",
          "name": "",
          "type": "string"
        }
      ],
      "stateMutability": "view",
      "type": "function"
    },
    {
      "inputs": [
        {
          "internalType": "uint256",
          "name": "tokenId",
          "type": "uint256"
        }
      ],
      "name": "pickRandomThirdWord",
      "outputs": [
        {
          "internalType": "string",
          "name": "",
          "type": "string"
        }
      ],
      "stateMutability": "view",
      "type": "function"
    },
    {
      "inputs": [
        {
          "internalType": "address",
          "name": "from",
          "type": "address"
        },
        {
          "internalType": "address",
          "name": "to",
          "type": "address"
        },
        {
          "internalType": "uint256",
          "name": "tokenId",
          "type": "uint256"
        }
      ],
      "name": "safeTransferFrom",
      "outputs": [],
      "stateMutability": "nonpayable",
      "type": "function"
    },
    {
      "inputs": [
        {
          "internalType": "address",
          "name": "from",
          "type": "address"
        },
        {
          "internalType": "address",
          "name": "to",
          "type": "address"
        },
        {
          "internalType": "uint256",
          "name": "tokenId",
          "type": "uint256"
        },
        {
          "internalType": "bytes",
          "name": "_data",
          "type": "bytes"
        }
      ],
      "name": "safeTransferFrom",
      "outputs": [],
      "stateMutability": "nonpayable",
      "type": "function"
    },
    {
      "inputs": [
        {
          "internalType": "address",
          "name": "operator",
          "type": "address"
        },
        {
          "internalType": "bool",
          "name": "approved",
          "type": "bool"
        }
      ],
      "name": "setApprovalForAll",
      "outputs": [],
      "stateMutability": "nonpayable",
      "type": "function"
    },
    {
      "inputs": [
        {
          "internalType": "bytes4",
          "name": "interfaceId",
          "type": "bytes4"
        }
      ],
      "name": "supportsInterface",
      "outputs": [
        {
          "internalType": "bool",
          "name": "",
          "type": "bool"
        }
      ],
      "stateMutability": "view",
      "type": "function"
    },
    {
      "inputs": [],
      "name": "symbol",
      "outputs": [
        {
          "internalType": "string",
          "name": "",
          "type": "string"
        }
      ],
      "stateMutability": "view",
      "type": "function"
    },
    {
      "inputs": [
        {
          "internalType": "uint256",
          "name": "tokenId",
          "type": "uint256"
        }
      ],
      "name": "tokenURI",
      "outputs": [
        {
          "internalType": "string",
          "name": "",
          "type": "string"
        }
      ],
      "stateMutability": "view",
      "type": "function"
    },
    {
      "inputs": [
        {
          "internalType": "address",
          "name": "from",
          "type": "address"
        },
        {
          "internalType": "address",
          "name": "to",
          "type": "address"
        },
        {
          "internalType": "uint256",
          "name": "tokenId",
          "type": "uint256"
        }
      ],
      "name": "transferFrom",
      "outputs": [],
      "stateMutability": "nonpayable",
      "type": "function"
    }
  ],
  "bytecode": "0x608060405260405180610160016040528061012f81526020016200455e61012f9139600890805190602001906200003892919062000470565b50606360095560405180606001604052806040518060400160405280600381526020017f425443000000000000000000000000000000000000000000000000000000000081525081526020016040518060400160405280600381526020017f455448000000000000000000000000000000000000000000000000000000000081525081526020016040518060400160405280600481526020017f5553445400000000000000000000000000000000000000000000000000000000815250815250600a9060036200010a92919062000501565b5060405180606001604052806040518060400160405280600381526020017f424e42000000000000000000000000000000000000000000000000000000000081525081526020016040518060400160405280600481526020017f555344430000000000000000000000000000000000000000000000000000000081525081526020016040518060400160405280600381526020017f5852500000000000000000000000000000000000000000000000000000000000815250815250600b906003620001d792919062000501565b5060405180606001604052806040518060400160405280600381526020017f534f4c000000000000000000000000000000000000000000000000000000000081525081526020016040518060400160405280600381526020017f414441000000000000000000000000000000000000000000000000000000000081525081526020016040518060400160405280600481526020017f4c554e4100000000000000000000000000000000000000000000000000000000815250815250600c906003620002a492919062000501565b50348015620002b257600080fd5b506040518060400160405280600881526020017f53717572654e46540000000000000000000000000000000000000000000000008152506040518060400160405280600681526020017f535155415245000000000000000000000000000000000000000000000000000081525081600090805190602001906200033792919062000470565b5080600190805190602001906200035092919062000470565b5050506200039e6040518060400160405280601881526020017f54686973206973206d79204e465420636f6e74726163742e0000000000000000815250620003a460201b620013741760201c565b62000722565b6200044481604051602401620003bb919062000636565b6040516020818303038152906040527f41304fac000000000000000000000000000000000000000000000000000000007bffffffffffffffffffffffffffffffffffffffffffffffffffffffff19166020820180517bffffffffffffffffffffffffffffffffffffffffffffffffffffffff83818316178352505050506200044760201b60201c565b50565b60008151905060006a636f6e736f6c652e6c6f679050602083016000808483855afa5050505050565b8280546200047e90620006ac565b90600052602060002090601f016020900481019282620004a25760008555620004ee565b82601f10620004bd57805160ff1916838001178555620004ee565b82800160010185558215620004ee579182015b82811115620004ed578251825591602001919060010190620004d0565b5b509050620004fd919062000568565b5090565b82805482825590600052602060002090810192821562000555579160200282015b82811115620005545782518290805190602001906200054392919062000470565b509160200191906001019062000522565b5b50905062000564919062000587565b5090565b5b808211156200058357600081600090555060010162000569565b5090565b5b80821115620005ab5760008181620005a19190620005af565b5060010162000588565b5090565b508054620005bd90620006ac565b6000825580601f10620005d15750620005f2565b601f016020900490600052602060002090810190620005f1919062000568565b5b50565b600062000602826200065a565b6200060e818562000665565b93506200062081856020860162000676565b6200062b8162000711565b840191505092915050565b60006020820190508181036000830152620006528184620005f5565b905092915050565b600081519050919050565b600082825260208201905092915050565b60005b838110156200069657808201518184015260208101905062000679565b83811115620006a6576000848401525b50505050565b60006002820490506001821680620006c557607f821691505b60208210811415620006dc57620006db620006e2565b5b50919050565b7f4e487b7100000000000000000000000000000000000000000000000000000000600052602260045260246000fd5b6000601f19601f8301169050919050565b613e2c80620007326000396000f3fe608060405234801561001057600080fd5b50600436106101215760003560e01c80638ada066e116100ad578063c575757a11610071578063c575757a1461032c578063c87b56dd1461035c578063d477a7121461038c578063de9d132f146103aa578063e985e9c5146103b457610121565b80638ada066e1461028857806395d89b41146102a6578063a22cb465146102c4578063b187301f146102e0578063b88d4fde1461031057610121565b806323b872dd116100f457806323b872dd146101c05780632de38d68146101dc57806342842e0e1461020c5780636352211e1461022857806370a082311461025857610121565b806301ffc9a71461012657806306fdde0314610156578063081812fc14610174578063095ea7b3146101a4575b600080fd5b610140600480360381019061013b919061283c565b6103e4565b60405161014d9190612fa2565b60405180910390f35b61015e6104c6565b60405161016b9190612fbd565b60405180910390f35b61018e6004803603810190610189919061288e565b610558565b60405161019b9190612f12565b60405180910390f35b6101be60048036038101906101b99190612800565b6105dd565b005b6101da60048036038101906101d591906126fa565b6106f5565b005b6101f660048036038101906101f1919061288e565b610755565b6040516102039190612fbd565b60405180910390f35b610226600480360381019061022191906126fa565b6108f1565b005b610242600480360381019061023d919061288e565b610911565b60405161024f9190612f12565b60405180910390f35b610272600480360381019061026d9190612695565b6109c3565b60405161027f919061326d565b60405180910390f35b610290610a7b565b60405161029d919061326d565b60405180910390f35b6102ae610a91565b6040516102bb9190612fbd565b60405180910390f35b6102de60048036038101906102d991906127c4565b610b23565b005b6102fa60048036038101906102f5919061288e565b610b39565b6040516103079190612fbd565b60405180910390f35b61032a60048036038101906103259190612749565b610cd5565b005b6103466004803603810190610341919061288e565b610d37565b6040516103539190612fbd565b60405180910390f35b6103766004803603810190610371919061288e565b610ed3565b6040516103839190612fbd565b60405180910390f35b610394611025565b6040516103a1919061326d565b60405180910390f35b6103b261102f565b005b6103ce60048036038101906103c991906126be565b6112e0565b6040516103db9190612fa2565b60405180910390f35b60007f80ac58cd000000000000000000000000000000000000000000000000000000007bffffffffffffffffffffffffffffffffffffffffffffffffffffffff1916827bffffffffffffffffffffffffffffffffffffffffffffffffffffffff191614806104af57507f5b5e139f000000000000000000000000000000000000000000000000000000007bffffffffffffffffffffffffffffffffffffffffffffffffffffffff1916827bffffffffffffffffffffffffffffffffffffffffffffffffffffffff1916145b806104bf57506104be8261140d565b5b9050919050565b6060600080546104d590613501565b80601f016020809104026020016040519081016040528092919081815260200182805461050190613501565b801561054e5780601f106105235761010080835404028352916020019161054e565b820191906000526020600020905b81548152906001019060200180831161053157829003601f168201915b5050505050905090565b600061056382611477565b6105a2576040517f08c379a0000000000000000000000000000000000000000000000000000000008152600401610599906131ed565b60405180910390fd5b6004600083815260200190815260200160002060009054906101000a900473ffffffffffffffffffffffffffffffffffffffff169050919050565b60006105e882610911565b90508073ffffffffffffffffffffffffffffffffffffffff168373ffffffffffffffffffffffffffffffffffffffff161415610659576040517f08c379a00000000000000000000000000000000000000000000000000000000081526004016106509061322d565b60405180910390fd5b8073ffffffffffffffffffffffffffffffffffffffff166106786114e3565b73ffffffffffffffffffffffffffffffffffffffff1614806106a757506106a6816106a16114e3565b6112e0565b5b6106e6576040517f08c379a00000000000000000000000000000000000000000000000000000000081526004016106dd9061312d565b60405180910390fd5b6106f083836114eb565b505050565b6107066107006114e3565b826115a4565b610745576040517f08c379a000000000000000000000000000000000000000000000000000000000815260040161073c9061324d565b60405180910390fd5b610750838383611682565b505050565b60606000610789610765846118e9565b6040516020016107759190612ece565b604051602081830303815290604052611a96565b90506107ca6040518060400160405280600b81526020017f72616e6420736565643a2000000000000000000000000000000000000000000081525082611ac9565b600a80549050816107db91906135ad565b905061081c6040518060400160405280601181526020017f72616e6420666972737420776f72643a2000000000000000000000000000000081525082611ac9565b600a8181548110610856577f4e487b7100000000000000000000000000000000000000000000000000000000600052603260045260246000fd5b90600052602060002001805461086b90613501565b80601f016020809104026020016040519081016040528092919081815260200182805461089790613501565b80156108e45780601f106108b9576101008083540402835291602001916108e4565b820191906000526020600020905b8154815290600101906020018083116108c757829003601f168201915b5050505050915050919050565b61090c83838360405180602001604052806000815250610cd5565b505050565b6000806002600084815260200190815260200160002060009054906101000a900473ffffffffffffffffffffffffffffffffffffffff169050600073ffffffffffffffffffffffffffffffffffffffff168173ffffffffffffffffffffffffffffffffffffffff1614156109ba576040517f08c379a00000000000000000000000000000000000000000000000000000000081526004016109b19061316d565b60405180910390fd5b80915050919050565b60008073ffffffffffffffffffffffffffffffffffffffff168273ffffffffffffffffffffffffffffffffffffffff161415610a34576040517f08c379a0000000000000000000000000000000000000000000000000000000008152600401610a2b9061314d565b60405180910390fd5b600360008373ffffffffffffffffffffffffffffffffffffffff1673ffffffffffffffffffffffffffffffffffffffff168152602001908152602001600020549050919050565b600080610a886007611b65565b90508091505090565b606060018054610aa090613501565b80601f0160208091040260200160405190810160405280929190818152602001828054610acc90613501565b8015610b195780601f10610aee57610100808354040283529160200191610b19565b820191906000526020600020905b815481529060010190602001808311610afc57829003601f168201915b5050505050905090565b610b35610b2e6114e3565b8383611b73565b5050565b60606000610b6d610b49846118e9565b604051602001610b599190612e67565b604051602081830303815290604052611a96565b9050610bae6040518060400160405280600b81526020017f72616e6420736565643a2000000000000000000000000000000000000000000081525082611ac9565b600b8054905081610bbf91906135ad565b9050610c006040518060400160405280601281526020017f72616e64207365636f6e6420776f72643a20000000000000000000000000000081525082611ac9565b600b8181548110610c3a577f4e487b7100000000000000000000000000000000000000000000000000000000600052603260045260246000fd5b906000526020600020018054610c4f90613501565b80601f0160208091040260200160405190810160405280929190818152602001828054610c7b90613501565b8015610cc85780601f10610c9d57610100808354040283529160200191610cc8565b820191906000526020600020905b815481529060010190602001808311610cab57829003601f168201915b5050505050915050919050565b610ce6610ce06114e3565b836115a4565b610d25576040517f08c379a0000000000000000000000000000000000000000000000000000000008152600401610d1c9061324d565b60405180910390fd5b610d3184848484611ce0565b50505050565b60606000610d6b610d47846118e9565b604051602001610d579190612e45565b604051602081830303815290604052611a96565b9050610dac6040518060400160405280600b81526020017f72616e6420736565643a2000000000000000000000000000000000000000000081525082611ac9565b600c8054905081610dbd91906135ad565b9050610dfe6040518060400160405280601181526020017f72616e6420746869726420776f72643a2000000000000000000000000000000081525082611ac9565b600c8181548110610e38577f4e487b7100000000000000000000000000000000000000000000000000000000600052603260045260246000fd5b906000526020600020018054610e4d90613501565b80601f0160208091040260200160405190810160405280929190818152602001828054610e7990613501565b8015610ec65780601f10610e9b57610100808354040283529160200191610ec6565b820191906000526020600020905b815481529060010190602001808311610ea957829003601f168201915b5050505050915050919050565b6060610ede82611477565b610f1d576040517f08c379a0000000000000000000000000000000000000000000000000000000008152600401610f14906131cd565b60405180910390fd5b6000600660008481526020019081526020016000208054610f3d90613501565b80601f0160208091040260200160405190810160405280929190818152602001828054610f6990613501565b8015610fb65780601f10610f8b57610100808354040283529160200191610fb6565b820191906000526020600020905b815481529060010190602001808311610f9957829003601f168201915b505050505090506000610fc7611d3c565b9050600081511415610fdd578192505050611020565b600082511115611012578082604051602001610ffa929190612dab565b60405160208183030381529060405292505050611020565b61101b84611d53565b925050505b919050565b6000600954905090565b600061103b6007611b65565b9050600954811115611082576040517f08c379a00000000000000000000000000000000000000000000000000000000081526004016110799061310d565b60405180910390fd5b600061108d82610755565b9050600061109a83610b39565b905060006110a784610d37565b905060008383836040516020016110c093929190612dcf565b604051602081830303815290604052905060006008826040516020016110e7929190612e16565b60405160208183030381529060405290506111366040518060400160405280601081526020017f0a2d2d2d2d2d2d2d2d2d2d2d2d2d2d2d00000000000000000000000000000000815250611374565b61113f81611374565b61117d6040518060400160405280601081526020017f2d2d2d2d2d2d2d2d2d2d2d2d2d2d2d0a00000000000000000000000000000000815250611374565b60006111b18361118c84611dfa565b60405160200161119d929190612e89565b604051602081830303815290604052611dfa565b90506000816040516020016111c69190612ef0565b60405160208183030381529060405290506112156040518060400160405280601581526020017f0a2d2d2d2d2d20546f6b656e20555249202d2d2d2d0000000000000000000000815250611374565b61121e81611374565b61125c6040518060400160405280601581526020017f2d2d2d2d2d2d2d2d2d2d2d2d2d2d2d2d2d2d2d2d0a0000000000000000000000815250611374565b6112663389611fb8565b6112708882611fd6565b611293604051806060016040528060258152602001613d9260259139893361204a565b61129d60076120e9565b7febb98688741ffa4c7589bf325de30cf7becb63de567842e1ccdb6cb949fdc82c33896040516112ce929190612f79565b60405180910390a15050505050505050565b6000600560008473ffffffffffffffffffffffffffffffffffffffff1673ffffffffffffffffffffffffffffffffffffffff16815260200190815260200160002060008373ffffffffffffffffffffffffffffffffffffffff1673ffffffffffffffffffffffffffffffffffffffff16815260200190815260200160002060009054906101000a900460ff16905092915050565b61140a816040516024016113889190612fbd565b6040516020818303038152906040527f41304fac000000000000000000000000000000000000000000000000000000007bffffffffffffffffffffffffffffffffffffffffffffffffffffffff19166020820180517bffffffffffffffffffffffffffffffffffffffffffffffffffffffff83818316178352505050506120ff565b50565b60007f01ffc9a7000000000000000000000000000000000000000000000000000000007bffffffffffffffffffffffffffffffffffffffffffffffffffffffff1916827bffffffffffffffffffffffffffffffffffffffffffffffffffffffff1916149050919050565b60008073ffffffffffffffffffffffffffffffffffffffff166002600084815260200190815260200160002060009054906101000a900473ffffffffffffffffffffffffffffffffffffffff1673ffffffffffffffffffffffffffffffffffffffff1614159050919050565b600033905090565b816004600083815260200190815260200160002060006101000a81548173ffffffffffffffffffffffffffffffffffffffff021916908373ffffffffffffffffffffffffffffffffffffffff160217905550808273ffffffffffffffffffffffffffffffffffffffff1661155e83610911565b73ffffffffffffffffffffffffffffffffffffffff167f8c5be1e5ebec7d5bd14f71427d1e84f3dd0314c0f7b2291e5b200ac8c7c3b92560405160405180910390a45050565b60006115af82611477565b6115ee576040517f08c379a00000000000000000000000000000000000000000000000000000000081526004016115e5906130ed565b60405180910390fd5b60006115f983610911565b90508073ffffffffffffffffffffffffffffffffffffffff168473ffffffffffffffffffffffffffffffffffffffff16148061166857508373ffffffffffffffffffffffffffffffffffffffff1661165084610558565b73ffffffffffffffffffffffffffffffffffffffff16145b80611679575061167881856112e0565b5b91505092915050565b8273ffffffffffffffffffffffffffffffffffffffff166116a282610911565b73ffffffffffffffffffffffffffffffffffffffff16146116f8576040517f08c379a00000000000000000000000000000000000000000000000000000000081526004016116ef9061306d565b60405180910390fd5b600073ffffffffffffffffffffffffffffffffffffffff168273ffffffffffffffffffffffffffffffffffffffff161415611768576040517f08c379a000000000000000000000000000000000000000000000000000000000815260040161175f906130ad565b60405180910390fd5b611773838383612128565b61177e6000826114eb565b6001600360008573ffffffffffffffffffffffffffffffffffffffff1673ffffffffffffffffffffffffffffffffffffffff16815260200190815260200160002060008282546117ce9190613417565b925050819055506001600360008473ffffffffffffffffffffffffffffffffffffffff1673ffffffffffffffffffffffffffffffffffffffff16815260200190815260200160002060008282546118259190613336565b92505081905550816002600083815260200190815260200160002060006101000a81548173ffffffffffffffffffffffffffffffffffffffff021916908373ffffffffffffffffffffffffffffffffffffffff160217905550808273ffffffffffffffffffffffffffffffffffffffff168473ffffffffffffffffffffffffffffffffffffffff167fddf252ad1be2c89b69c2b068fc378daa952ba7f163c4a11628f55a4df523b3ef60405160405180910390a46118e483838361212d565b505050565b60606000821415611931576040518060400160405280600181526020017f30000000000000000000000000000000000000000000000000000000000000008152509050611a91565b600082905060005b6000821461196357808061194c90613564565b915050600a8261195c919061338c565b9150611939565b60008167ffffffffffffffff8111156119a5577f4e487b7100000000000000000000000000000000000000000000000000000000600052604160045260246000fd5b6040519080825280601f01601f1916602001820160405280156119d75781602001600182028036833780820191505090505b5090505b60008514611a8a576001826119f09190613417565b9150600a856119ff91906135ad565b6030611a0b9190613336565b60f81b818381518110611a47577f4e487b7100000000000000000000000000000000000000000000000000000000600052603260045260246000fd5b60200101907effffffffffffffffffffffffffffffffffffffffffffffffffffffffffffff1916908160001a905350600a85611a83919061338c565b94506119db565b8093505050505b919050565b600081604051602001611aa99190612d94565b6040516020818303038152906040528051906020012060001c9050919050565b611b618282604051602401611adf929190612fdf565b6040516020818303038152906040527f9710a9d0000000000000000000000000000000000000000000000000000000007bffffffffffffffffffffffffffffffffffffffffffffffffffffffff19166020820180517bffffffffffffffffffffffffffffffffffffffffffffffffffffffff83818316178352505050506120ff565b5050565b600081600001549050919050565b8173ffffffffffffffffffffffffffffffffffffffff168373ffffffffffffffffffffffffffffffffffffffff161415611be2576040517f08c379a0000000000000000000000000000000000000000000000000000000008152600401611bd9906130cd565b60405180910390fd5b80600560008573ffffffffffffffffffffffffffffffffffffffff1673ffffffffffffffffffffffffffffffffffffffff16815260200190815260200160002060008473ffffffffffffffffffffffffffffffffffffffff1673ffffffffffffffffffffffffffffffffffffffff16815260200190815260200160002060006101000a81548160ff0219169083151502179055508173ffffffffffffffffffffffffffffffffffffffff168373ffffffffffffffffffffffffffffffffffffffff167f17307eab39ab6107e8899845ad3d59bd9653f200f220920489ca2b5937696c3183604051611cd39190612fa2565b60405180910390a3505050565b611ceb848484611682565b611cf784848484612132565b611d36576040517f08c379a0000000000000000000000000000000000000000000000000000000008152600401611d2d9061304d565b60405180910390fd5b50505050565b606060405180602001604052806000815250905090565b6060611d5e82611477565b611d9d576040517f08c379a0000000000000000000000000000000000000000000000000000000008152600401611d949061320d565b60405180910390fd5b6000611da7611d3c565b90506000815111611dc75760405180602001604052806000815250611df2565b80611dd1846118e9565b604051602001611de2929190612dab565b6040516020818303038152906040525b915050919050565b60606000825190506000811415611e235760405180602001604052806000815250915050611fb3565b60006003600283611e349190613336565b611e3e919061338c565b6004611e4a91906133bd565b90506000602082611e5b9190613336565b67ffffffffffffffff811115611e9a577f4e487b7100000000000000000000000000000000000000000000000000000000600052604160045260246000fd5b6040519080825280601f01601f191660200182016040528015611ecc5781602001600182028036833780820191505090505b5090506000604051806060016040528060408152602001613db7604091399050600181016020830160005b86811015611f705760038101905062ffffff818a015116603f8160121c168401518060081b905060ff603f83600c1c1686015116810190508060081b905060ff603f8360061c1686015116810190508060081b905060ff603f831686015116810190508060e01b90508084526004840193505050611ef7565b506003860660018114611f8a5760028114611f9a57611fa5565b613d3d60f01b6002830352611fa5565b603d60f81b60018303525b508484525050819450505050505b919050565b611fd28282604051806020016040528060008152506122c9565b5050565b611fdf82611477565b61201e576040517f08c379a00000000000000000000000000000000000000000000000000000000081526004016120159061318d565b60405180910390fd5b80600660008481526020019081526020016000209080519060200190612045929190612521565b505050565b6120e48383836040516024016120629392919061300f565b6040516020818303038152906040527fe3849f79000000000000000000000000000000000000000000000000000000007bffffffffffffffffffffffffffffffffffffffffffffffffffffffff19166020820180517bffffffffffffffffffffffffffffffffffffffffffffffffffffffff83818316178352505050506120ff565b505050565b6001816000016000828254019250508190555050565b60008151905060006a636f6e736f6c652e6c6f679050602083016000808483855afa5050505050565b505050565b505050565b60006121538473ffffffffffffffffffffffffffffffffffffffff16612324565b156122bc578373ffffffffffffffffffffffffffffffffffffffff1663150b7a0261217c6114e3565b8786866040518563ffffffff1660e01b815260040161219e9493929190612f2d565b602060405180830381600087803b1580156121b857600080fd5b505af19250505080156121e957506040513d601f19601f820116820180604052508101906121e69190612865565b60015b61226c573d8060008114612219576040519150601f19603f3d011682016040523d82523d6000602084013e61221e565b606091505b50600081511415612264576040517f08c379a000000000000000000000000000000000000000000000000000000000815260040161225b9061304d565b60405180910390fd5b805181602001fd5b63150b7a0260e01b7bffffffffffffffffffffffffffffffffffffffffffffffffffffffff1916817bffffffffffffffffffffffffffffffffffffffffffffffffffffffff1916149150506122c1565b600190505b949350505050565b6122d38383612347565b6122e06000848484612132565b61231f576040517f08c379a00000000000000000000000000000000000000000000000000000000081526004016123169061304d565b60405180910390fd5b505050565b6000808273ffffffffffffffffffffffffffffffffffffffff163b119050919050565b600073ffffffffffffffffffffffffffffffffffffffff168273ffffffffffffffffffffffffffffffffffffffff1614156123b7576040517f08c379a00000000000000000000000000000000000000000000000000000000081526004016123ae906131ad565b60405180910390fd5b6123c081611477565b15612400576040517f08c379a00000000000000000000000000000000000000000000000000000000081526004016123f79061308d565b60405180910390fd5b61240c60008383612128565b6001600360008473ffffffffffffffffffffffffffffffffffffffff1673ffffffffffffffffffffffffffffffffffffffff168152602001908152602001600020600082825461245c9190613336565b92505081905550816002600083815260200190815260200160002060006101000a81548173ffffffffffffffffffffffffffffffffffffffff021916908373ffffffffffffffffffffffffffffffffffffffff160217905550808273ffffffffffffffffffffffffffffffffffffffff16600073ffffffffffffffffffffffffffffffffffffffff167fddf252ad1be2c89b69c2b068fc378daa952ba7f163c4a11628f55a4df523b3ef60405160405180910390a461251d6000838361212d565b5050565b82805461252d90613501565b90600052602060002090601f01602090048101928261254f5760008555612596565b82601f1061256857805160ff1916838001178555612596565b82800160010185558215612596579182015b8281111561259557825182559160200191906001019061257a565b5b5090506125a391906125a7565b5090565b5b808211156125c05760008160009055506001016125a8565b5090565b60006125d76125d2846132ad565b613288565b9050828152602081018484840111156125ef57600080fd5b6125fa8482856134bf565b509392505050565b60008135905061261181613d35565b92915050565b60008135905061262681613d4c565b92915050565b60008135905061263b81613d63565b92915050565b60008151905061265081613d63565b92915050565b600082601f83011261266757600080fd5b81356126778482602086016125c4565b91505092915050565b60008135905061268f81613d7a565b92915050565b6000602082840312156126a757600080fd5b60006126b584828501612602565b91505092915050565b600080604083850312156126d157600080fd5b60006126df85828601612602565b92505060206126f085828601612602565b9150509250929050565b60008060006060848603121561270f57600080fd5b600061271d86828701612602565b935050602061272e86828701612602565b925050604061273f86828701612680565b9150509250925092565b6000806000806080858703121561275f57600080fd5b600061276d87828801612602565b945050602061277e87828801612602565b935050604061278f87828801612680565b925050606085013567ffffffffffffffff8111156127ac57600080fd5b6127b887828801612656565b91505092959194509250565b600080604083850312156127d757600080fd5b60006127e585828601612602565b92505060206127f685828601612617565b9150509250929050565b6000806040838503121561281357600080fd5b600061282185828601612602565b925050602061283285828601612680565b9150509250929050565b60006020828403121561284e57600080fd5b600061285c8482850161262c565b91505092915050565b60006020828403121561287757600080fd5b600061288584828501612641565b91505092915050565b6000602082840312156128a057600080fd5b60006128ae84828501612680565b91505092915050565b6128c08161344b565b82525050565b6128cf8161345d565b82525050565b60006128e0826132f3565b6128ea8185613309565b93506128fa8185602086016134ce565b6129038161369a565b840191505092915050565b6000612919826132fe565b612923818561331a565b93506129338185602086016134ce565b61293c8161369a565b840191505092915050565b6000612952826132fe565b61295c818561332b565b935061296c8185602086016134ce565b80840191505092915050565b6000815461298581613501565b61298f818661332b565b945060018216600081146129aa57600181146129bb576129ee565b60ff198316865281860193506129ee565b6129c4856132de565b60005b838110156129e6578154818901526001820191506020810190506129c7565b838801955050505b50505092915050565b6000612a0460628361332b565b9150612a0f826136ab565b606282019050919050565b6000612a2760328361331a565b9150612a3282613746565b604082019050919050565b6000612a4a60258361331a565b9150612a5582613795565b604082019050919050565b6000612a6d601c8361331a565b9150612a78826137e4565b602082019050919050565b6000612a90600a8361332b565b9150612a9b8261380d565b600a82019050919050565b6000612ab360248361331a565b9150612abe82613836565b604082019050919050565b6000612ad660198361331a565b9150612ae182613885565b602082019050919050565b6000612af9600b8361332b565b9150612b04826138ae565b600b82019050919050565b6000612b1c602c8361331a565b9150612b27826138d7565b604082019050919050565b6000612b3f600d8361332b565b9150612b4a82613926565b600d82019050919050565b6000612b62600a8361331a565b9150612b6d8261394f565b602082019050919050565b6000612b8560018361332b565b9150612b9082613978565b600182019050919050565b6000612ba860388361331a565b9150612bb3826139a1565b604082019050919050565b6000612bcb602a8361331a565b9150612bd6826139f0565b604082019050919050565b6000612bee60298361331a565b9150612bf982613a3f565b604082019050919050565b6000612c11602e8361331a565b9150612c1c82613a8e565b604082019050919050565b6000612c3460028361332b565b9150612c3f82613add565b600282019050919050565b6000612c5760208361331a565b9150612c6282613b06565b602082019050919050565b6000612c7a60318361331a565b9150612c8582613b2f565b604082019050919050565b6000612c9d602c8361331a565b9150612ca882613b7e565b604082019050919050565b6000612cc0602f8361331a565b9150612ccb82613bcd565b604082019050919050565b6000612ce3600a8361332b565b9150612cee82613c1c565b600a82019050919050565b6000612d0660218361331a565b9150612d1182613c45565b604082019050919050565b6000612d29600a8361332b565b9150612d3482613c94565b600a82019050919050565b6000612d4c601d8361332b565b9150612d5782613cbd565b601d82019050919050565b6000612d6f60318361331a565b9150612d7a82613ce6565b604082019050919050565b612d8e816134b5565b82525050565b6000612da08284612947565b915081905092915050565b6000612db78285612947565b9150612dc38284612947565b91508190509392505050565b6000612ddb8286612947565b9150612de682612b78565b9150612df28285612947565b9150612dfd82612b78565b9150612e098284612947565b9150819050949350505050565b6000612e228285612978565b9150612e2e8284612947565b9150612e3982612b32565b91508190509392505050565b6000612e5082612a83565b9150612e5c8284612947565b915081905092915050565b6000612e7282612aec565b9150612e7e8284612947565b915081905092915050565b6000612e9482612cd6565b9150612ea08285612947565b9150612eab826129f7565b9150612eb78284612947565b9150612ec282612c27565b91508190509392505050565b6000612ed982612d1c565b9150612ee58284612947565b915081905092915050565b6000612efb82612d3f565b9150612f078284612947565b915081905092915050565b6000602082019050612f2760008301846128b7565b92915050565b6000608082019050612f4260008301876128b7565b612f4f60208301866128b7565b612f5c6040830185612d85565b8181036060830152612f6e81846128d5565b905095945050505050565b6000604082019050612f8e60008301856128b7565b612f9b6020830184612d85565b9392505050565b6000602082019050612fb760008301846128c6565b92915050565b60006020820190508181036000830152612fd7818461290e565b905092915050565b60006040820190508181036000830152612ff9818561290e565b90506130086020830184612d85565b9392505050565b60006060820190508181036000830152613029818661290e565b90506130386020830185612d85565b61304560408301846128b7565b949350505050565b6000602082019050818103600083015261306681612a1a565b9050919050565b6000602082019050818103600083015261308681612a3d565b9050919050565b600060208201905081810360008301526130a681612a60565b9050919050565b600060208201905081810360008301526130c681612aa6565b9050919050565b600060208201905081810360008301526130e681612ac9565b9050919050565b6000602082019050818103600083015261310681612b0f565b9050919050565b6000602082019050818103600083015261312681612b55565b9050919050565b6000602082019050818103600083015261314681612b9b565b9050919050565b6000602082019050818103600083015261316681612bbe565b9050919050565b6000602082019050818103600083015261318681612be1565b9050919050565b600060208201905081810360008301526131a681612c04565b9050919050565b600060208201905081810360008301526131c681612c4a565b9050919050565b600060208201905081810360008301526131e681612c6d565b9050919050565b6000602082019050818103600083015261320681612c90565b9050919050565b6000602082019050818103600083015261322681612cb3565b9050919050565b6000602082019050818103600083015261324681612cf9565b9050919050565b6000602082019050818103600083015261326681612d62565b9050919050565b60006020820190506132826000830184612d85565b92915050565b60006132926132a3565b905061329e8282613533565b919050565b6000604051905090565b600067ffffffffffffffff8211156132c8576132c761366b565b5b6132d18261369a565b9050602081019050919050565b60008190508160005260206000209050919050565b600081519050919050565b600081519050919050565b600082825260208201905092915050565b600082825260208201905092915050565b600081905092915050565b6000613341826134b5565b915061334c836134b5565b9250827fffffffffffffffffffffffffffffffffffffffffffffffffffffffffffffffff03821115613381576133806135de565b5b828201905092915050565b6000613397826134b5565b91506133a2836134b5565b9250826133b2576133b161360d565b5b828204905092915050565b60006133c8826134b5565b91506133d3836134b5565b9250817fffffffffffffffffffffffffffffffffffffffffffffffffffffffffffffffff048311821515161561340c5761340b6135de565b5b828202905092915050565b6000613422826134b5565b915061342d836134b5565b9250828210156134405761343f6135de565b5b828203905092915050565b600061345682613495565b9050919050565b60008115159050919050565b60007fffffffff0000000000000000000000000000000000000000000000000000000082169050919050565b600073ffffffffffffffffffffffffffffffffffffffff82169050919050565b6000819050919050565b82818337600083830152505050565b60005b838110156134ec5780820151818401526020810190506134d1565b838111156134fb576000848401525b50505050565b6000600282049050600182168061351957607f821691505b6020821081141561352d5761352c61363c565b5b50919050565b61353c8261369a565b810181811067ffffffffffffffff8211171561355b5761355a61366b565b5b80604052505050565b600061356f826134b5565b91507fffffffffffffffffffffffffffffffffffffffffffffffffffffffffffffffff8214156135a2576135a16135de565b5b600182019050919050565b60006135b8826134b5565b91506135c3836134b5565b9250826135d3576135d261360d565b5b828206905092915050565b7f4e487b7100000000000000000000000000000000000000000000000000000000600052601160045260246000fd5b7f4e487b7100000000000000000000000000000000000000000000000000000000600052601260045260246000fd5b7f4e487b7100000000000000000000000000000000000000000000000000000000600052602260045260246000fd5b7f4e487b7100000000000000000000000000000000000000000000000000000000600052604160045260246000fd5b6000601f19601f8301169050919050565b7f222c226465736372697074696f6e223a20224120686967686c79206163636c6160008201527f696d656420636f6c6c656374696f6e206f6620737175617265732e222c20226960208201527f6d616765223a2022646174613a696d6167652f7376672b786d6c3b626173653660408201527f342c000000000000000000000000000000000000000000000000000000000000606082015250565b7f4552433732313a207472616e7366657220746f206e6f6e20455243373231526560008201527f63656976657220696d706c656d656e7465720000000000000000000000000000602082015250565b7f4552433732313a207472616e736665722066726f6d20696e636f72726563742060008201527f6f776e6572000000000000000000000000000000000000000000000000000000602082015250565b7f4552433732313a20746f6b656e20616c7265616479206d696e74656400000000600082015250565b7f54484952445f574f524400000000000000000000000000000000000000000000600082015250565b7f4552433732313a207472616e7366657220746f20746865207a65726f2061646460008201527f7265737300000000000000000000000000000000000000000000000000000000602082015250565b7f4552433732313a20617070726f766520746f2063616c6c657200000000000000600082015250565b7f5345434f4e445f574f5244000000000000000000000000000000000000000000600082015250565b7f4552433732313a206f70657261746f7220717565727920666f72206e6f6e657860008201527f697374656e7420746f6b656e0000000000000000000000000000000000000000602082015250565b7f3c2f746578743e3c2f7376673e00000000000000000000000000000000000000600082015250565b7f4f766572206d6178496400000000000000000000000000000000000000000000600082015250565b7f2000000000000000000000000000000000000000000000000000000000000000600082015250565b7f4552433732313a20617070726f76652063616c6c6572206973206e6f74206f7760008201527f6e6572206e6f7220617070726f76656420666f7220616c6c0000000000000000602082015250565b7f4552433732313a2062616c616e636520717565727920666f7220746865207a6560008201527f726f206164647265737300000000000000000000000000000000000000000000602082015250565b7f4552433732313a206f776e657220717565727920666f72206e6f6e657869737460008201527f656e7420746f6b656e0000000000000000000000000000000000000000000000602082015250565b7f45524337323155524953746f726167653a2055524920736574206f66206e6f6e60008201527f6578697374656e7420746f6b656e000000000000000000000000000000000000602082015250565b7f227d000000000000000000000000000000000000000000000000000000000000600082015250565b7f4552433732313a206d696e7420746f20746865207a65726f2061646472657373600082015250565b7f45524337323155524953746f726167653a2055524920717565727920666f722060008201527f6e6f6e6578697374656e7420746f6b656e000000000000000000000000000000602082015250565b7f4552433732313a20617070726f76656420717565727920666f72206e6f6e657860008201527f697374656e7420746f6b656e0000000000000000000000000000000000000000602082015250565b7f4552433732314d657461646174613a2055524920717565727920666f72206e6f60008201527f6e6578697374656e7420746f6b656e0000000000000000000000000000000000602082015250565b7f7b226e616d65223a202200000000000000000000000000000000000000000000600082015250565b7f4552433732313a20617070726f76616c20746f2063757272656e74206f776e6560008201527f7200000000000000000000000000000000000000000000000000000000000000602082015250565b7f46495253545f574f524400000000000000000000000000000000000000000000600082015250565b7f646174613a6170706c69636174696f6e2f6a736f6e3b6261736536342c000000600082015250565b7f4552433732313a207472616e736665722063616c6c6572206973206e6f74206f60008201527f776e6572206e6f7220617070726f766564000000000000000000000000000000602082015250565b613d3e8161344b565b8114613d4957600080fd5b50565b613d558161345d565b8114613d6057600080fd5b50565b613d6c81613469565b8114613d7757600080fd5b50565b613d83816134b5565b8114613d8e57600080fd5b5056fe416e204e465420772f20494420257320686173206265656e206d696e74656420746f2025734142434445464748494a4b4c4d4e4f505152535455565758595a6162636465666768696a6b6c6d6e6f707172737475767778797a303132333435363738392b2fa2646970667358221220ca31eb666e29c8614d0cf182d6ae770854c00a4690c5f97f209c70508f554dd864736f6c634300080400333c73766720786d6c6e733d27687474703a2f2f7777772e77332e6f72672f323030302f73766727207072657365727665417370656374526174696f3d27784d696e594d696e206d656574272076696577426f783d273020302033353020333530273e3c7374796c653e2e62617365207b2066696c6c3a2077686974653b20666f6e742d66616d696c793a2073657269663b20666f6e742d73697a653a20323470783b207d3c2f7374796c653e3c726563742077696474683d273130302527206865696768743d2731303025272066696c6c3d27626c61636b27202f3e3c7465787420783d273530252720793d273530252720636c6173733d27626173652720646f6d696e616e742d626173656c696e653d276d6964646c652720746578742d616e63686f723d276d6964646c65273e",
  "linkReferences": {},
  "deployedLinkReferences": {}
}